S01A00007261696C5F736F635F72616E67655F746573742E73333703
S3150800000000100020F94300083914010839140108C2
S31508000010372E010839140108391401083914010862
S31508000020391401083914010839140108391401086A
S31508000030391401083914010839140108391401085A
S31508000040391401083914010839140108391401084A
S31508000050391401083914010839140108391401083A
S31508000060391401083914010839140108E90E000881
S31508000070D90E000839140108391401083914010881
S31508000080391401083914010839140108391401080A
S315080000903914010839140108614D0008391401089A
S315080000A03914010839140108754F00084D4F000826
S315080000B03914010839140108E9C5000859D000089F
S315080000C0CB350108C735010825C80008D73501080A
S315080000D0CF35010831D00008D3350108BDD0000856
S315080000E0F9D000083914010839140108391401082F
S315080000F0391401083914010839140108391401089A
S315080001003914010839140108391401083914010889
S315080001103914010839140108391401083914010879
S315080001203914010839140108391401083914010869
S315080001303914010839140108391401083914010859
S315080001403914010839140108391401083914010849
S315080001503914010839140108F12E0108F9F80008C4
S3150800016039140108391401087B3B0108813B010851
S31508000170013800D0FCE7704730B58BB000230693F2
S31508000180079308930993884B0693884906A80DF0A8
S3150800019029F8874B186018B30023059305A913F0AF
S315080001A037FB0546002836D0824C8349206812F072
S315080001B052FC10F0CDFF10F0CCFF804B0093762355
S315080001C07F4A8049206812F046FC7F4A7F492068AA
S315080001D012F041FC2A467E49206812F03CFCFEE7F4
S315080001E0744C7549206812F036FC10F0B1FF10F017
S315080001F0B0FF724B00936B23714A7249206812F064
S315080002002AFC744A7149206812F025FC7249206854
S3150800021012F021FCFEE7664C704A714B196820689B
S315080002200DF01AFA0021206812F00EF80546D8B12A
S31508000230604C6149206812F00EFC10F089FF10F03E
S3150800024088FF5E4B00938B235D4A5E49206812F057
S3150800025002FC5D4A5D49206812F0FDFB2A466149A9
S31508000260206812F0F8FBFEE75F49514B18680DF05D
S315080002707FFA0546D8B14F4C4F49206812F0EBFB80
S3150800028010F066FF10F065FF4C4B009397234C4A1D
S315080002904C49206812F0DFFB4B4A4C49206812F0A3
S315080002A0DAFB2A465149206812F0D5FBFEE73CA343
S315080002B0D3E90023CDE900234FF0FF324FF0FF3397
S315080002C03B49086813F02AFA0546D8B1394C3A4929
S315080002D0206812F0C0FB10F03BFF10F03AFF374BD6
S315080002E00093A023364A3749206812F0B4FB364AF1
S315080002F03649206812F0AFFB2A463D49206812F0BD
S31508000300AAFBFEE73B4B1B88ADF81030ADF80C3066
S3150800031004A9274B186813F0E7F90546D8B1254C08
S315080003202549206812F097FB10F012FF10F011FF14
S31508000330224B0093B023224A2249206812F08BFBF5
S31508000340214A2249206812F086FB2A462A49206853
S3150800035012F081FBFEE703A9154B186813F0DAF9CA
S31508000360054608B90BB030BD124C1349206812F087
S3150800037072FB10F0EDFE10F0ECFE104B0093B52367
S315080003800F4A1049206812F066FB0F4A0F49206889
S3150800039012F061FB2A461949206812F05CFBFEE759
S315080003A0082100010002000041110108231101087B
S315080003B02C1000203C150020245C01088C560108EE
S315080003C0D0540108645401084055010874540108C2
S315080003D074550108F0540108185501082D11010833
S315080003E000100020A055010807001100D855010883
S315080003F000560108A45601082C5601085C56010847
S315080004002DE9F04F2DED028B93B082460C469346AC
S315080004101D4657EC106B8DED080B32463B463046B1
S3150800042039460FF083FF002800F009814FF0FF32AC
S31508000430B14B304639460FF0A1FF002840F0FF8047
S315080004404FF0FF326FF48013304639460FF078FFCD
S31508000450002840F0F48000220023DDE908673046D2
S3150800046039460FF06DFF002840F0FC809DED087BB3
S315080004708DED067B209B13F48063119301D106232F
S315080004801E93DDE906010246C1F30A50C1F31303C0
S31508000490904643F07F5949F44019A0F2FF300FF017
S315080004A073FC83A3D3E900230FF0D8FC82A3D3E916
S315080004B000230FF01DFB06460F4600228F4B4046D1
S315080004C049460FF013FB7EA3D3E900230FF0C6FCC1
S315080004D002460B46304639460FF00AFB0FF058FF26
S315080004E006460FF051FC8046894677A3D3E90023D8
S315080004F00FF0B4FC0022824B0FF0FAFA0FF048FF17
S31508000500074673A3D3E90023404649460FF0A6FCE5
S315080005108046894638460FF037FC6FA3D3E9002397
S315080005200FF09CFC02460B46404649460FF0DEFAA1
S315080005308046894602460B460FF090FCCDE90C0131
S3150800054007F2FF3700210022CDE90A123B050B937B
S3150800055000230A9342464B46404649460FF0C8FADE
S31508000560CDE90E0142464B4600204FF080410FF080
S31508000570BDFA804689460022624BDDE90C010FF080
S3150800058097FD0022604B0FF0B3FA02460B46DDE9F1
S315080005900C010FF08DFD00225C4B0FF0A9FA024604
S315080005A00B46DDE90C010FF083FD02460B4640467B
S315080005B049460FF09DFA02460B46DDE90E010FF09B
S315080005C077FD0022524B0FF093FADDE90A230FF06C
S315080005D045FC8046894649EC188BDDE906230FF071
S315080005E0CDFE40B1013E0022474B404649460FF03A
S315080005F05FFD41EC180B06F16303C62B3BD80427B5
S31508000600209B13F4006F40D035A3D3E90023DDE91E
S315080006100689404649460FF0A7FE00283BD032A37C
S31508000620D3E90023404649460FF08AFE002832D017
S315080006301E9BB34221DD9E1B731E1E931FE0209B4B
S3150800064002931F9B01931E9B00939DED080B2B465F
S315080006505A462146504600F0CBF813B0BDEC028B43
S31508000660BDE8F08F9FED227B8DED067B069607F1A0
S3150800067000430793FEE60527C2E700231E93209B47
S3150800068043F48063209300273E461F9B9F4241D236
S31508000690A3EB070840E01E9B002BF6D0119B002B0E
S315080006A0F3D01E9B013B1E93EFE700BFAFF300801C
S315080006B0FB799F501344D33FB3C8608B288AC63F43
S315080006C061436F63A787D23F71A379094F930A40A5
S315080006D01655B5BBB16B0240EF39FAFE422EE63F1E
S315080006E02D431CEBE2361A3F0000000080842E41A1
S315080006F00000000000000000FFFFEF7F0000F83F49
S315080007000000E03F00002C40000024400000184094
S315080007100000F03F4FF00008209B13F0020902D0BA
S315080007200FB14FF000083EB153EC182BDDE9060176
S315080007300FF0BEFCCDE9060100220023DDE9080121
S315080007400FF0FEFD00283BD1209B23F400630293A3
S31508000750CDF804801E9B00939DED060B2B465A464A
S315080007602146504600F044F8002F3FF476AF209B10
S3150800077013F0200F2CD04FF0450C00F101082B4642
S31508000780024621466046D04786EAE672A2EBE67242
S3150800079005230593013F0497002303930A23029335
S315080007A0F30F019300922B4642462146504612F01B
S315080007B0D1FCB9F1000F3FF450AF02461F9F10E07D
S315080007C0DDE90601024601F10043CDE90623BBE750
S315080007D04FF0650CD1E7561C2B4621462020D04702
S315080007E03246A2EB0B03BB42F5D3104635E700BFF2
S315080007F02DE9F04F2DED028B93B0059008919246A6
S315080008009B4659EC108B1E9D42464B464046494630
S315080008100FF08CFD002840D04FF0FF326FF48013A4
S31508000820404649460FF08CFD002845D14FF0FF326F
S31508000830B14B404649460FF0A1FD00284BD1AAA36B
S31508000840D3E90023404649460FF098FD00285AD1BF
S31508000850A7A3D3E90023404649460FF071FD0028B7
S3150800086051D100220023404649460FF069FD002871
S3150800087057D100230993209B13F4806F5CD0002482
S315080008801F2C5BD8092D59D904F148036B44302233
S3150800089003F8202C013D0134F2E7209B03931F9BAC
S315080008A0029303230193954B00935B46524608999E
S315080008B0059812F075FB10E1209B03931F9B02938A
S315080008C0042301938E4B00935B465246089905987C
S315080008D012F066FB01E1209B13F004030FD0894A4E
S315080008E07BB10423209903911F99029101930092E9
S315080008F05B4652460899059812F052FBEDE0824A8B
S31508000900EEE70323EEE7209B02931F9B01930095D6
S3150800091049EC108B5B46524608990598FFF770FD1F
S31508000920DBE042464B46002000210FF0DFF8804608
S315080009308946012309939EE70625A0E740464946CE
S315080009400FF026FD06460FF01FFA02460B464046F4
S3150800095049460FF0CBF86D4B03EBC50393ED008BBF
S3150800096053EC182B0FF07AFA02460B46CDE906230C
S315080009700FF036FD07460FF0F7F902460B46DDE99C
S3150800098006010FF0B3F802460B46CDE9062300220E
S315080009905F4B0FF0F3FC50B3013738460FF0E4F91C
S315080009A002460B4651EC180B0FF0D4FC08B1013681
S315080009B0002755BB30460FF0E7F902460B4640467E
S315080009C049460FF093F8804689460022504B0FF0AF
S315080009D0B7FC38B100224E4B404649460FF0CEFCD4
S315080009E0002842D016F0010F3FD001363DE0002224
S315080009F0474BDDE906010FF0A3FC0028D9D117B152
S31508000A0017F0010FD5D00137D3E71F2C17D8013DB2
S31508000A10404BA3FB0723DB08194603EB8303A7EB2D
S31508000A204303621C303304F148000DEB000404F85C
S31508000A30203C092F02D90F461446E6E714461F2C18
S31508000A400AD86B1E45B104F148026A44302102F8FF
S31508000A50201C1D460134F2E71F2C06D804F1480372
S31508000A606B442E2203F8202C01341F2C17D82A4A4F
S31508000A7082FB0632F317C3EBA2031A4603EB830382
S31508000A80A6EB4303611C303304F148000DEB000468
S31508000A9004F8203C16460AB10C46E6E70C46209BAD
S31508000AA003F00303012B39D01F2C09D8099B002B0F
S31508000AB051D004F148036B442D2203F8202C01344D
S31508000AC0209B03931F9B029301940AAB00935B46FA
S31508000AD052460899059812F063FA13B0BDEC028BDA
S31508000AE0BDE8F08FAFF300800000000065CDCD4172
S31508000AF00000000065CDCDC1FFFFEF7FB87001088B
S31508000B00BC700108AC700108B4700108C87001080F
S31508000B100000E03FCDCCCCCC676666661F9BB3B1C0
S31508000B20099B1BB9209B13F00C0F12D01F9B013B8E
S31508000B301F93194606E004F148036B44302203F874
S31508000B40202C01348C42AFD21F2CF4D9ACE71F9964
S31508000B50F8E71F99F6E7209B13F0040F07D004F176
S31508000B6048036B442B2203F8202C0134A8E7209B6A
S31508000B7013F0080FA4D004F148036B44202203F8AD
S31508000B80202C01349CE700BF0348044B834202D063
S31508000B90034B03B118477047F8110020F8110020DD
S31508000BA000000000064B0749C91A891048BF0131E1
S31508000BB0491003D0044B0BB101481847704700BFD2
S31508000BC0F8110020F81100200000000010B5064CAE
S31508000BD0237843B9FFF7D8FF044B13B10448AFF3A2
S31508000BE000800123237010BD3A2900200000000070
S31508000BF0D8CB010808B5054B1BB105490548AFF325
S31508000C000080BDE80840FFF7CDBF00BF0000000028
S31508000C1030140020D8CB0108A3F5803A704700BFEE
S31508000C20174B002B08BF134B9D46FFF7F5FF002116
S31508000C308B460F461348144A121A13F0C2F80E4B85
S31508000C40002B00D098470D4B002B00D0984700206A
S31508000C50002104000D000D48002802D00C48AFF30F
S31508000C60008010F0C5F82000290008F089F90FF077
S31508000C7067FD00BF0000080000000000000000003B
S31508000C8000100020F811002078290020000000003C
S31508000C900000000030B585B0094C2268094B1A607F
S31508000CA0094D0A4B2B600A4B019306F0C1FF0290CF
S31508000CB02B68039301A9206811F0F0FA05B030BD3E
S31508000CC028100020502400204C2400201C1000204E
S31508000CD00054010838B506F0ABFF0446054D2B68ED
S31508000CE0D86C06F099FF286811F0EAFA204606F053
S31508000CF093FF38BD2810002008B504F013FD10F046
S31508000D0087FE264A136F23F0070343F0030313678E
S31508000D1004F0B2FE224B9B6A13F0807F03D1214B6D
S31508000D204FF480329A621D4BD3F8202122F0070235
S31508000D3042F00202C3F82021D3F8282122F0070244
S31508000D4042F00202C3F82821D3F8402122F0030218
S31508000D5042F00202C3F84021D3F8602122F00302D0
S31508000D6042F00202C3F86021D3F8402222F00302BF
S31508000D7042F00202C3F84022D3F8002222F007020A
S31508000D8042F00202C3F80022D3F8082222F0070232
S31508000D9042F00202C3F80822002008BD0080005075
S31508000DA00040005A0060005A10B4194B5A6E02F4FB
S31508000DB0803203F580514FF480304866586E4FF004
S31508000DC000434B66134B596C01F001014AF6CD34CA
S31508000DD01C64104B5B6B13F0010FFAD10E4B012408
S31508000DE05C600C4B1B6B13F0010FFAD011B1094B69
S31508000DF00A491964002803DB094B4FF0004159667C
S31508000E001AB9074B4FF480325A665DF8044B70479F
S31508000E100080005000400950006009503254FFFF1E
S31508000E2000A0005030B59FB0264C0DF1580CA646D0
S31508000E30BEE80F00ACE80F009EE80F008CE80F0034
S31508000E40302200210AA812F0BCFF1F4B0A93012288
S31508000E508DF82D2056230C9308230F9309231193FD
S31508000E600A23139308AB203494E8030083E80300AD
S31508000E700DF1080C00240294039404940594069436
S31508000E8007948CE803000B238DF810300C238DF89B
S31508000E9011300E4B0593202306938DF81C208DF8F0
S31508000EA01D200B4B00930AAB16AA6146094806F0AB
S31508000EB0E1FE054621464FF4E13010F088FA28464F
S31508000EC01FB030BD185401080000015BA0140020B3
S31508000ED0C01400202415002008B5024811F027FE8A
S31508000EE008BD00BF2415002008B5024811F01FFEF2
S31508000EF008BD00BF2415002070B582B005460E4611
S31508000F000E4C0F49206811F0A6FD10F021F910F0DB
S31508000F1020F90C4B009339230B4A0C49206811F031
S31508000F209AFD0B4A0B49206811F095FD33462A466F
S31508000F300949206811F08FFDFEE700BF3C15002027
S31508000F40245C0108B054010840540108645401089F
S31508000F5070540108745401088C54010882B0054B7A
S31508000F60019302AB03EB800050F8043C186802B00A
S31508000F70704700BF2C10002008B5034810F0BCFAD3
S31508000F80024810F0B9FA08BDC0560108A85601086B
S31508000F9003460B4A107828B10A4A12789A4202D2B6
S31508000FA0002000E00120084A12783AB1074A127870
S31508000FB042FA03F313F0010F00D10020704700BF77
S31508000FC0E8110020E71100203B290020E611002047
S31508000FD008B5084B01221A70074B00221A70074BF6
S31508000FE004221A70064B1F221A7006F021FE054BC2
S31508000FF0186008BDE81100203B290020E7110020F1
S31508001000E61100203C150020014B1878704700BFF8
S315080010103C290020014B1870704700BF3C2900206E
S3150800102070B506460C46154610F094F82E600A4B25
S315080010301B780BB9608870BD0320FFF7A9FF00284D
S31508001040F8D010F085F810F084F862880349044B4C
S31508001050186811F000FDEDE73C290020D856010874
S315080010603C15002070B582B01546012312F0D2FB5C
S315080010700446854204D1194B1B78FBB902B070BDF2
S31508001080174E1849306811F0E6FC10F061F810F0B8
S3150800109060F8154B00934FF4AB73144A1449306843
S315080010A011F0D9FC134A1449306811F0D4FC2B46C8
S315080010B022461249306811F0CEFCFEE70320FFF7FE
S315080010C067FF0028DAD010F043F810F042F82246FD
S315080010D00B49034B186811F0BEFCCFE73C290020EA
S315080010E03C150020245C010810580108FC5601082C
S315080010F0645401088057010874540108A057010870
S31508001100EC57010810B50320FFF742FF00B910BDE0
S3150800111010F01EF810F01DF8064B1C68FFF774FF58
S3150800112028B1054A0549204611F095FCEFE7044A1F
S31508001130F8E700BF3C150020205801082858010888
S315080011402458010810B58368C26853F822301B7802
S315080011503BB10120FFF75EFF0320FFF719FF20B917
S3150800116010BD0020FFF756FFF6E70FF0F1FF0FF06E
S31508001170F0FF064B1C68FFF747FF28B1044A0549EC
S31508001180204611F068FCEBE7034AF8E73C15002017
S3150800119020580108285801082458010830B5C3B05A
S315080011A002AD00240294FC22214603A812F009FE8F
S315080011B08DF807400DF10701284602F08DF99DF8D4
S315080011C00730013BEC540320FFF7E2FE08B943B0B1
S315080011D030BD0FF0BDFF0FF0BCFF2A460249034B96
S315080011E0186811F038FCF2E7405801083C15002051
S315080011F008B50320FFF7CCFE00B908BD0FF0A8FF1D
S315080012000FF0A7FF054B1868054B1B7823B9054A4D
S31508001210054911F020FCF0E7044AF9E73C150020DF
S315080012201C18002058580108605801085C58010825
S3150800123008B5B0B18268A2B1C36852F8233083B149
S315080012401B78012B1CD90320FFF7A2FE68B10FF00B
S315080012507FFF0FF07EFF1749174B186811F0FBFB4D
S3150800126003E00120FFF794FE00B908BD0FF070FFF8
S315080012700FF06FFF1149104B186811F0ECFBF4E7FB
S315080012800F4A13700320FFF783FE10B90FF074FF9F
S31508001290EBE70FF05DFF0FF05CFF074B1868084B94
S315080012A01B7823B9074A084911F0D5FBEEE7074A28
S315080012B0F9E700BF945801083C1500207858010842
S315080012C01C18002058580108605801085C58010885
S315080012D000B585B00FF0A0FF68B90F4B5B780F4AD1
S315080012E00D21684607F016FE0320FFF751FE30B9B8
S315080012F005B05DF804FB68460FF0F0FFF4E70FF061
S3150800130027FF0FF026FF044B5A786B460449054819
S31508001310006811F0A0FBEBE71C180020BC58010878
S31508001320C85801083C15002038B5D0B10446836872
S31508001330BBB1C26853F822309BB11D78234B1B788A
S31508001340AB4233D928460FF01DFFC8B9204B5D7054
S3150800135000200FF0E0FF0FF00FFF2046FFF7B8FF61
S3150800136038BD0120FFF714FE0028F9D00FF0F0FE73
S315080013700FF0EFFE1749184B186811F06CFBEFE7F2
S3150800138028460FF0FDFE10B1114B5D70E0E7032013
S31508001390FFF7FEFD0028E3D00FF0DAFE0FF0D9FEC6
S315080013A00E490D4B186811F056FBD9E70320FFF7D5
S315080013B0EFFD0028D4D00FF0CBFE0FF0CAFE084987
S315080013C0054B186811F047FBCAE700BF4B290020F8
S315080013D01C180020E45801083C1500200059010893
S315080013E05459010830B587B0002305930493ADF826
S315080013F00E300DF10E0204A905A801F0BBFD1F4B26
S315080014005A8814B20320FFF7C3FD08B907B030BDE8
S315080014100FF09EFE0FF09DFE84EAE475A5EBE475D9
S31508001420ADB2BDF90E1081EAE17CACEBE17C1FFAA6
S315080014308CFC134880FB05239B1003EB830380FB7E
S31508001440042EE217C2EBAE0280FB0C4E4FEAAE0E3C
S315080014500EEB8E0EACEB4E04019480FB0140C917CF
S31508001460C1EBA00109B20091A5EB430312B20549ED
S315080014700548006811F0EFFAC8E700BF1C180020FD
S3150800148067666666845901083C15002038B530B38E
S31508001490044683681BB3C26853F82230FBB1B3F91C
S315080014A0005001F07BFCA84203DC01F0B1FCA84225
S315080014B024DA0320FFF76CFDA8B10FF049FE0FF000
S315080014C048FE134B1D6801F069FC044601F0A0FCB8
S315080014D0034622460F49284611F0BDFA03E00120CB
S315080014E0FFF756FD00B938BD0FF032FE0FF031FE9A
S315080014F00949074B186811F0AEFAF4E7074B5D8007
S3150800150001F0BEFC0FF038FE2046FFF76BFFEAE756
S315080015103C150020C8590108A85901081C180020C4
S3150800152000B589B0002304930393ADF80A300DF192
S315080015300A0203A904A801F01DFD049B1B4AA2FB8D
S315080015400312920C1A4901FB1232D2B101F18641FB
S3150800155001F5492101F64341A1FB03131549A1FBF6
S315080015600212C2F34F3200929B0C134A0B2105A8B4
S3150800157007F0D0FC0320FFF70BFD60B909B05DF852
S3150800158004FB0A4AA2FB03239B0C0C4A0B2105A861
S3150800159007F0C0FCEEE70FF0DBFD0FF0DAFD05AA59
S315080015A00749084B186811F056FAE7E783DE1B432C
S315080015B040420F005917B7D1F0590108FC590108E4
S315080015C0045A01083C15002008B50320FFF7E0FC83
S315080015D000B908BD0FF0BCFD0FF0BBFD044B9A889F
S315080015E092B20449044B186811F035FAF1E700BFC6
S315080015F01C1800201C5A01083C15002030B583B081
S3150800160058B30446836843B3C26853F8223023B3F9
S315080016101D880023ADF80630ADF8043001A90DF198
S31508001620060001F0CBFCBDF80630AB4203D8BDF886
S315080016300430AB4221D20320FFF7AAFC88B10FF091
S3150800164087FD0FF086FDBDF80430BDF806200F496A
S315080016500F48006811F0FFF903E00120FFF798FC36
S3150800166008B903B030BD0FF073FD0FF072FD0949DC
S31508001670074B186811F0EFF9F3E7074B9D800FF059
S315080016807BFD2046FFF7A0FFEBE700BFC85901081E
S315080016903C150020345A01081C18002008B5032000
S315080016A0FFF776FC00B908BD0FF052FD0FF051FDAB
S315080016B0034B9A790349044B186811F0CCF9F2E701
S315080016C01C1800205C5A01083C15002030B583B070
S315080016D060B3044683684BB3C26853F822302BB311
S315080016E01D7800238DF807308DF806300DF10601B8
S315080016F00DF107000FF09FFD9DF80730AB4203D8A8
S315080017009DF80630AB4221D20320FFF741FC88B191
S315080017100FF01EFD0FF01DFD9DF806309DF8072001
S315080017200E490F48006811F096F903E00120FFF70B
S315080017302FFC08B903B030BD0FF00AFD0FF009FD04
S315080017400849074B186811F086F9F3E7064B9D71AF
S315080017500FF012FD2046FFF7A1FFEBE7C859010875
S315080017603C150020745A01081C18002008B5144BB3
S315080017701B899BB24FF6FF72934211D00320FFF7E5
S3150800178007FC00B908BD0FF0E3FC0FF0E2FC0C4BB8
S315080017901A8992B20B490C4B186811F05CF9F1E7FB
S315080017A00320FFF7F5FB0028ECD00FF0D1FC0FF073
S315080017B0D0FC0649044B186811F04DF9E2E700BF62
S315080017C01C1800209C5A01083C150020B45A010830
S315080017D010B5A0B1044683688BB1C26853F82230AD
S315080017E06BB11B78072B19D8144A32F81320144BFF
S315080017F01A810FF0C1FC2046FFF7B8FF10BD012083
S31508001800FFF7C6FB0028F9D00FF0A2FC0FF0A1FCE9
S315080018100C490D4B186811F01EF9EFE70320FFF786
S31508001820B7FB0028EAD00FF093FC0FF092FC0749AB
S31508001830054B186811F00FF9E0E700BFAC5C01082A
S315080018401C180020D05A01083C150020F45A01083B
S3150800185008B50320FFF79CFB00B908BD0FF078FC1C
S315080018600FF077FC034B9A7A0349044B186811F07A
S31508001870F2F8F2E71C1800201C5B01083C15002052
S3150800188010B5B8B104468368A3B1C26853F82230CC
S3150800189083B11B78202B1BD90320FFF779FBF0B106
S315080018A00FF056FC0FF055FC0D490E4B186811F059
S315080018B0D2F814E00120FFF76BFB80B10FF048FC6B
S315080018C00FF047FC0849074B186811F0C4F806E002
S315080018D0064A93720FF050FC2046FFF7B9FF10BD79
S315080018E0585B01083C150020345B01081C180020D1
S315080018F008B50320FFF74CFB00B908BD0FF028FC1C
S315080019000FF027FC034BDA7A0349044B186811F0E9
S31508001910A2F8F2E71C180020805B01083C1500209D
S3150800192010B5B8B104468368A3B1C26853F822302B
S3150800193083B11B78202B1BD90320FFF729FBF0B1B5
S315080019400FF006FC0FF005FC0D490E4B186811F058
S3150800195082F814E00120FFF71BFB80B10FF0F8FBBB
S315080019600FF0F7FB0849074B186811F074F806E002
S31508001970064AD3720FF000FC2046FFF7B9FF10BDE8
S31508001980585B01083C150020985B01081C180020CC
S3150800199008B50320FFF7FCFA00B908BD0FF0D8FB1D
S315080019A00FF0D7FB034B1A7B0349044B186811F059
S315080019B052F8F2E71C180020B85B01083C15002015
S315080019C010B5A8B10446836893B1C26853F82230AB
S315080019D073B11B78202B03D0402B01D0802B16D156
S315080019E0124A13730FF0C8FB2046FFF7D1FF10BD4C
S315080019F00120FFF7CDFA0028F9D00FF0A9FB0FF068
S31508001A00A8FB0B490B4B186811F025F8EFE70320E4
S31508001A10FFF7BEFA0028EAD00FF09AFB0FF099FB01
S31508001A200549044B186811F016F8E0E71C18002061
S31508001A30D05B01083C150020F85B010808B50320B7
S31508001A40FFF7A6FA00B908BD0FF082FB0FF081FB7D
S31508001A50054B1868054B5B7B23B1054A054910F011
S31508001A60FAFFF0E7044AF9E73C1500201C180020A5
S31508001A70285C0108305C01082C5C010810B5B8B177
S31508001A8004468368A3B1C26853F8223083B11B7831
S31508001A90012B1CD90320FFF77BFA68B10FF058FB1E
S31508001AA00FF057FB0F49104B186810F0D4FF03E0EE
S31508001AB00120FFF76DFA00B910BD0FF049FB0FF0D2
S31508001AC048FB0A49084B186810F0C5FFF4E7003BC5
S31508001AD018BF0123064A53730FF04EFB2046FFF743
S31508001AE0ADFFE9E7705C01083C150020485C010879
S31508001AF01C18002008B5064B1B781BB1054B0122A4
S31508001B0083F82420022002F05FF90FF035FB08BDA8
S31508001B101C180020F417002008B5094B1B785BB188
S31508001B20084B002283F824200FF0B8FB012002F0AE
S31508001B304BF90FF021FB08BD0FF08DFBF4E700BF52
S31508001B401C180020F417002010B504460320FFF7E0
S31508001B501FFA40BB2046FFF74BFB2046FFF7B8FBB2
S31508001B602046FFF73FFC2046FFF7DAFC2046FFF742
S31508001B702BFD2046FFF792FD2046FFF7F7FD20468E
S31508001B80FFF766FE2046FFF7B3FE2046FFF700FF85
S31508001B902046FFF753FF0320FFF7FAF968B92046F6
S31508001BA0FFF7FCFA10BD0FF0D3FA0FF0D2FA084986
S31508001BB0084B186810F04FFFCCE70FF0C9FA0FF082
S31508001BC0C8FA0549034B186810F045FFE7E700BF58
S31508001BD0985C01083C150020245C010808B54FF400
S31508001BE0FA6006F0B3FC044B18604FF4FA6006F08E
S31508001BF0ADFC024B186008BD4415002040150020B6
S31508001C0020B9074B187800221A707047012801D0AE
S31508001C1000207047034B187800221A70704700BFDF
S31508001C20402900203F29002010B582B004460FF055
S31508001C306AFC012807D0274B9C4230D0264B9C4291
S31508001C403AD002B010BD234B9C4215D0224B9C4281
S31508001C50F7D1224B1B78002BF3D10123204A1370AE
S31508001C601E4A13700023019300931E4A1E490968F1
S31508001C701E4811F001F9E4E71D4B1B78002BE0D153
S31508001C8001231C4A13701A4A137000230193009308
S31508001C90144A19490968194811F0EEF8D1E7144BA6
S31508001CA000221A70154806F0FBFB4FF4FA6006F09E
S31508001CB04DFC114B1860C4E7084B00221A700B48FC
S31508001CC006F0EEFB4FF4FA6006F040FC064B18608F
S31508001CD0B7E700BFC0560108A85601083D290020ED
S31508001CE03F290020011D0008401500204815002046
S31508001CF03E290020402900204415002068150020B0
S31508001D0008B5104B984203D00F4B98420DD008BD2A
S31508001D100E4B00221A704FF4FA7006F017FC0C4BA3
S31508001D2018600C48FFF780FFF1E70B4B00221A708A
S31508001D304FF4FA7006F00AFC084B18600848FFF7DB
S31508001D4073FFE4E768150020481500203E290020A7
S31508001D5044150020C05601083D29002040150020E2
S31508001D60A856010865280ED8084B1B78834203D36A
S31508001D701B1A074AD05C7047C01AC0B2C0F1660089
S31508001D80034B185C70470020704700BF41290020AC
S31508001D908815002038B5841CE400164D0123224618
S31508001DA01946284610F011F80223621C012128461C
S31508001DB010F00BF80323A21C0121284610F005F8A1
S31508001DC00423E21C012128460FF0FFFF0323221DEE
S31508001DD0012128460FF0F9FF0223621D012128463A
S31508001DE00FF0F3FF0123A21D194628460FF0EDFF59
S31508001DF038BD00BFF015002030B585B0224C00254F
S31508001E00A56001230193009323681B88023B029374
S31508001E1094F82530023303936946204610F094F867
S31508001E2023681B88013B039A0132294620460FF096
S31508001E30CCFF23681B88013B039A023229462046B9
S31508001E400FF0C3FF23685B88023B039394F82520B1
S31508001E509B1A013B01936946204610F075F82368E2
S31508001E601B88013B019A013A294620460FF0ADFF2F
S31508001E7023681B88013B019A023A294620460FF03F
S31508001E80A4FF05B030BD00BFF015002030B585B001
S31508001E900446084D284610F085F9002202920223CE
S31508001EA00193009201232146284610F097F905B0C0
S31508001EB030BD00BFF0150020F0B585B004460E46CB
S31508001EC04F4F5049384610F06DF997F8245097F857
S31508001ED02570B31E052B76D8DFE803F06B464F59FD
S31508001EE0620300228DF808201546002C72D0444B58
S31508001EF01B681B8803EB4303C5EB5305C5F34F0566
S31508001F003F4B1B685C88E41BA4B2013CA4B2002AC0
S31508001F1068D03D4B53F8262013785178D2F8022022
S31508001F20019200912246294635480FF02EFF344C7F
S31508001F303649204610F036F9236819885B8894F8E4
S31508001F4025209A1A023A490820460FF08AFF236884
S31508001F505A8894F82510521A1B88033A00212046FD
S31508001F600FF033FF05B0F0BD294B93E8030002904C
S31508001F708DF80C10AD000022B7E7264B93E8030056
S31508001F800290ADF80C1005EB85050022ADE7224B53
S31508001F9093E8030002908DF80C10AD000022A4E728
S31508001FA01E4B93E8030002908DF80C10AD0000223A
S31508001FB09BE71B4B1B68ADF808301B0C8DF80A30E5
S31508001FC06D00002291E7104B53F826301D785F7894
S31508001FD001228AE70A4B1B681B88C5EB5305C5F324
S31508001FE04F058DE702A80FF03EF90246002301933C
S31508001FF000942B4602A9024810F092F897E700BF12
S31508002000F0150020286A010840100020F86601082B
S31508002010BC5C0108C45C0108CC5C0108D45C0108FE
S31508002020DC5C01082DE9F04385B006460C4600F154
S31508002030180801F12109314D4B460A464146284602
S315080020400FF00FFF06F116074346621D394628466C
S315080020500FF0BBFE434604F11102394628460FF03D
S31508002060B4FE2B681B88013B4A46394628460FF0C2
S31508002070ACFEDFF88C800A234246052102A806F04A
S3150800208049FF02A80FF0EFF80246A31C00270197A4
S315080020900093334602A9284610F042F86FF027034A
S315080020A04246052102A806F035FF02A80FF0DBF824
S315080020B0024604F10E0301970093334602A9284607
S315080020C010F02EF86FF063034246052102A806F0C9
S315080020D021FF02A80FF0C7F8024695F8253003EB52
S315080020E04303234401970093334602A9284610F078
S315080020F017F85FFA89F005B0BDE8F083F0150020FF
S31508002100E05C0108F8B506460D4601240BE0A5EB90
S31508002110A00005F1200300F12002394609480FF016
S31508002120A0FE0134E4B2652C0BD83719013FC4F17F
S315080021306600C0B2FFF716FE40B26430E7D503303A
S31508002140E5E7F8BDF0150020F0B583B006461A4855
S31508002150002585606FF07F434360184910F022F828
S31508002160344607E00135EDB2204601F0BFFD08BB55
S315080021700134E4B273190C339C421BD2204601F099
S3150800218087FB0028EED1204601F0EEFD07462046E3
S3150800219001F0EAFD0FF067F80246A31B5B1B02334A
S315080021A0DB000021019100930623394602480FF00F
S315080021B0B7FFD9E703B0F0BDF0150020F8660108AF
S315080021C02DE9F0478AB00446584B1A78D2B2584BD4
S315080021D01B8B012A77D0564A558BADB2978BBFB267
S315080021E092F822305BB2D2F800A0D2F804904FF6EB
S315080021F0FF72974200F084804E4A162104A806F022
S3150800220089FE152204A94C4801F070FB06460FF01A
S315080022102AF80246DFF8308100230193009401234F
S31508002220314640460FF07CFF98F825602644F6B202
S315080022304FF6FF739F4269D000953B463F4A1621E9
S3150800224004A806F067FE152204A93D4801F04EFBD6
S3150800225005460FF008F80246DFF8EC8000230193E4
S3150800226000960123294640460FF05AFF98F8255054
S315080022703544EDB24FF6FF739F4250D050460DF0ED
S3150800228095FDCDE9020148460DF090FDCDE9000126
S315080022902C4A162104A806F03DFE04A80EF0E3FF1A
S315080022A00246294E002301930095012304A93046CE
S315080022B00FF036FF96F825302B44DBB2181BC0B258
S315080022C00AB0BDE8F0879BB2204A162104A806F09A
S315080022D021FE152204A91E4801F008FB05460EF04A
S315080022E0C2FF0246184E0023019300940123294693
S315080022F030460FF015FF96F825302344DBB2DDE7AC
S31508002300144A04AB07CA03C31A807AE7124A04AB15
S3150800231007CA03C323F8022B120C1A7093E70F4A55
S31508002320162104A806F0F6FDB7E700BF1C18002022
S31508002330F4170020045D0108105D0108245D0108FA
S315080023402C5D0108485D0108F0150020285D01088C
S31508002350E85C0108F85C0108185D0108305D0108B1
S315080023602DE9F04F91B00446002307930693ADF884
S3150800237016300DF1160206A907A800F0FBFD0EF0AF
S315080023804FFFC64B1B78DBB2012B3AD0C34B9F7A63
S31508002390FFB2DE7AF6B21B78002B40F03E81079B2F
S315080023A0BF4AA2FB0312920CBE4901FB1232002A55
S315080023B000F0298101F1864101F5492101F64341E1
S315080023C0A1FB0313B849A1FB0212C2F34F320092D4
S315080023D09B0CB64A1F2108A806F09CFD08A80EF01B
S315080023E042FF0246B24D002301930094012308A937
S315080023F028460FF095FE95F825A0A2445FFA8AFABA
S315080024000CE18246079BA64AA2FB0312920CA54939
S3150800241001FB1232002A00F0EC8001F1864101F539
S31508002420492101F64341A1FB03139F49A1FB02126F
S31508002430C2F34F3200929B0C9E4A1F2108A806F051
S3150800244069FD152208A99C4801F050FA07460EF0C6
S315080024500AFF0246964D0026019600940123394646
S3150800246028460FF05DFE95F825702744FFB2069BB7
S31508002470924AA2FB0323C3F38F13914A1F2108A88C
S3150800248006F048FD152208A98E4801F02FFA804665
S315080024900EF0E9FE024601960097012341462846BA
S315080024A00FF03EFE95F825303B445FFA83FBDFF8D4
S315080024B0EC81B8F80430DFF838929BB24A461F21FF
S315080024C008A806F027FD152208A97F4801F00EFA8C
S315080024D007460EF0C8FE02460196CDF800B0012365
S315080024E0394628460FF01CFE95F825705F44FFB262
S315080024F050460BF0C7F8B8F802301BB283EAE3710E
S31508002500A1EBE37189B280EAE07CACEBE07C1FFAD0
S315080025108CFC6E4A82FB03AEDB17C3EBAE0382FB71
S315080025200CAE4FEAAE0E0EEB8E0EACEB4E0CCDF8A3
S3150800253008C082FB00ECC017C0EBAC0000B20190EB
S3150800254082FB0102921002EB8202A1EB420100918A
S315080025501BB25F4A1F2108A806F0DCFC152208A951
S315080025605C4801F0C3F982460EF07DFE02460196EC
S3150800257000970123514628460FF0D2FD95F82530DD
S315080025801F44FFB298F80B304A461F2108A806F0E8
S31508002590C1FC152208A9504801F0A8F982460EF098
S315080025A062FE0246019600970123514628460FF01F
S315080025B0B7FD95F825301F44FFB298F80A304A4609
S315080025C01F2108A806F0A6FC152208A9434801F011
S315080025D08DF980460EF047FE0246019600970123C4
S315080025E0414628460FF09CFD95F825303B44DBB262
S315080025F04FE02B4AA2FB03239B0C394A1F2108A84C
S3150800260006F088FC1DE7264AA2FB03239B0C354AE5
S315080026101F2108A806F07EFCE0E6A246069B274A8C
S31508002620A2FB03231D4A928892B20092C3F38F132A
S315080026302D4A1F2108A806F06DFC08A80EF013FE07
S315080026400246DFF86C804FF00009CDF80490CDF80B
S3150800265000A0012308A940460FF062FD98F825500E
S315080026605544EDB200973346204A1F2108A806F0C4
S3150800267051FC08A80EF0F7FD0246CDF80490009527
S31508002680012308A940460FF04BFD98F825302B4446
S31508002690DBB2181BC0B211B0BDE8F08F1C180020C1
S315080026A083DE1B4340420F005917B7D1C85D0108A6
S315080026B0F0150020F0590108605D0108D34D62103D
S315080026C06C5D0108745D0108885D010867666666C9
S315080026D0945D0108A85D0108B05D0108BC5D0108AC
S315080026E0FC590108D45D0108DC5D0108F45D0108A8
S315080026F0845D010808B5002004F0BAF800B1FEE7C9
S31508002700074804F023F900B1FEE705486FF07F4358
S3150800271043600023836003490FF044FD08BD00BFF2
S31508002720F0150020286A010810B51A4C20460FF04B
S31508002730CCFAFFF761FB6FF07F43A3601649174891
S31508002740FFF7A4FB94F8252023681B88013B023277
S31508002750002120460FF039FB00210846FFF7ACFBA5
S3150800276001F0A0FA01F00EFB01460120FFF7A4FBD9
S3150800277001F0B6FAFFF7E8FC01F094FA01F098FACE
S31508002780044601F0ADFA201AC0B2FFF703FB04F0C5
S315080027909DF810BDF0150020286A01080C5E010896
S315080027A030B591B0002407940694ADF816400DF1A3
S315080027B0160206A907A800F0DDFB274D28460FF0EC
S315080027C084FA264B01933F23009380230A2221464D
S315080027D028460FF0DAFA224928460FF0E3FC02945D
S315080027E001940094012308221E4928460FF0F6FC9E
S315080027F01D4928460FF0D6FC0EF00EFD10BB079BB0
S315080028001A4AA2FB0323BDF91620194981FB0201C6
S31508002810D217C2EBA10212B200929B0C154A2021D4
S315080028200DEB010006F076FB00230293019300935B
S3150800283001230A2208A908480FF0D0FC04F046F83C
S3150800284011B030BD029401940094012309220A496B
S3150800285028460FF0C3FCD2E7F0150020645E010895
S31508002860286A01081C5E0108F866010883DE1B4316
S31508002870676666663C5E0108285E010870B5234DEA
S3150800288028460FF022FAFFF7B7FA6FF07F43AB60DE
S315080028901F492048FFF7FAFA95F825202B681B8868
S315080028A0013B0232002128460FF08FFA062100204C
S315080028B0FFF702FB0026AE600F214FF0FF30FFF74F
S315080028C0B1FB04460F211820FFF71CFCE21C2B68FD
S315080028D01B88013BD2B2314628460FF076FA0634F9
S315080028E0E4B22046FFF73CFD0444E4B2621C2B68C0
S315080028F01B88013BD2B2314628460FF066FA0434EB
S31508002900E0B2FFF75DFC03F0E1FF70BDF0150020B3
S31508002910286A01081C5E010870B51F4C20460FF096
S31508002920D4F9FFF769FA6FF07F43A3601B491C4887
S31508002930FFF7ACFA94F8252023681B88013B02327E
S31508002940002120460FF041FA164B93F8243003B3C2
S3150800295005210120FFF7B0FA06210020FFF7ACFA9F
S315080029600D4D0026AE601020FFF7FAFC044600F174
S3150800297014022B681B88013BD2B2314628460FF059
S3150800298024FA04F11C00C0B2FFF71AFC03F09EFFFC
S3150800299070BD0421DDE700BFF0150020286A010894
S315080029A01C5E0108F4170020002304E0054A9C2158
S315080029B0D1540133DBB2652BF8D9034B00221A70C8
S315080029C0704700BF8815002041290020074A137860
S315080029D00133DBB21370652B02D9134600221A7035
S315080029E0024B1B78024AD054704700BF4129002089
S315080029F08815002010B504460320FEF7C9FA00B969
S31508002A0010BD0EF0A5FB0EF0A4FB22460249034BAF
S31508002A10186810F020F8F3E7606201083C150020FA
S31508002A2010B582B0FFF766FE00F0E6FA00F01EFF6A
S31508002A30002001F0C9F901F0CDF940F6B83005F0EB
S31508002A4085FD01460023019300930E4A0E4810F0B7
S31508002A5013FA28B90D48FFF7CDFF012002B010BDC3
S31508002A6004460120FEF794FA0028F3D00EF070FB16
S31508002A700EF06FFB22460649064B18680FF0EBFF6F
S31508002A80E8E700BF9D1101081C1600208C620108AA
S31508002A90646201083C15002010B582B000238DF849
S31508002AA007300DF10701184805F02AFD20B99DF8F1
S31508002AB0073093B902B010BD04460120FEF768FA44
S31508002AC00028F4D00EF044FB0EF043FB22460F49D3
S31508002AD00F4B18680FF0BFFFE9E70B4805F0E0FC5D
S31508002AE004460028E6D00120FEF752FA0028E1D075
S31508002AF00EF02EFB0EF02DFB22460649044B1868F5
S31508002B000FF0A9FFD6E700BF1C160020986201083F
S31508002B103C150020C462010808B5034608460B8028
S31508002B20044B9A7A8A70DA7ACA7099790EF03DFB64
S31508002B3008BD00BF1C18002000B50F4991F82330C6
S31508002B405A09023251F8220003F01F0E4FF0010C09
S31508002B500CFA0EFC20EA0C0041F822000133DBB225
S31508002B60064A127BD2B29A4200D80023024A82F859
S31508002B7023305DF804FB00BFF41700201C18002062
S31508002B801E4B93F82330DBB21D4A127BD2B2824227
S31508002B9002D970B310B510E0194B1B7BDBB207E006
S31508002BA0013216494FF0FF3041F82200203BDBB2D4
S31508002BB05A09F5D170470138B8B15A090F4C023293
S31508002BC054F8221003F01F0E4FF0010C0CFA0EFCFD
S31508002BD041EA0C0144F822100133DBB2084A127BA1
S31508002BE0D2B29A42E7D80023E5E7044A82F82330AE
S31508002BF010BD024A82F82330704700BFF417002040
S31508002C001C180020034B00225A611A61DA609A6088
S31508002C10704700BFF41700200E4B03EA5003C31A8F
S31508002C200D4A02EA90029B1A03EBD30323F063537F
S31508002C3023F40E1323F4636323F008030748A0FB69
S31508002C4003201A1A00EB52004009C0EB8010181A2C
S31508002C50704700BFDBB66DDB499224490541100475
S31508002C6038B50024254609E0A21C084B53F8220073
S31508002C70FFF7D2FF2844C5B20134E4B2044B1B7BEC
S31508002C80B4EB531FF0D3284638BD00BFF417002015
S31508002C901C180020294B9B8B9BB24FF6FF72934260
S31508002CA000D170472DE9F0439BB00DF1400C234C41
S31508002CB00FCCACE80F000FCCACE80F0094E803008B
S31508002CC08CE803001E4B0CAC0FCB84E80F000120E8
S31508002CD0FEF75EF910B91BB0BDE8F0830EF038FABE
S31508002CE00EF037FABDF85C50BDF86060BDF85A7052
S31508002CF09DF836809DF83C909DF962309DF83B2002
S31508002D009DF83A100F4804680A9109920893119899
S31508002D100DF04CF8CDE9060110980DF047F8CDE90D
S31508002D200401CDF80890CDF80480009733462A466A
S31508002D30054920460FF08FFECDE700BFF4170020A7
S31508002D401C1800203C150020EC620108F0B583B081
S31508002D500E4B1C8B0E490B899DB2CB7ADEB28B7A51
S31508002D60DFB20320FEF714F908B903B0F0BDA4B228
S31508002D700EF0EEF90EF0EDF9019700962B46224675
S31508002D800449054800680FF066FEEEE7F4170020D0
S31508002D901C180020506301083C15002010B582B0AD
S31508002DA00EF03EFA694610F0DDFC40B99DF80000C9
S31508002DB003F0ACFEA0B1B0F9020002B010BD0446A3
S31508002DC00120FEF7E5F80028F0D00EF0C1F90EF064
S31508002DD0C0F922460A490B4B18680FF03CFEE5E796
S31508002DE00120FEF7D5F808B90748E6E70EF0B0F96E
S31508002DF00EF0AFF90549034B18680FF02CFEF3E700
S31508002E007C6301083C150020FCFEFFFFBC6301083B
S31508002E1010B582B00EF004FA694610F0A3FC40B96A
S31508002E209DF8000003F072FEA0B1B0F9000002B0F0
S31508002E3010BD04460120FEF7ABF80028F0D00EF0CE
S31508002E4087F90EF086F922460A490B4B18680FF0E7
S31508002E5002FEE5E70120FEF79BF808B9C820E6E779
S31508002E600EF076F90EF075F90449034B18680FF061
S31508002E70F2FDF3E7086401083C15002048640108E0
S31508002E8010B50EF0CDF90C4B598809B210F06CFC50
S31508002E9000B910BD04460120FEF77AF80028F8D0DC
S31508002EA00EF056F90EF055F922460449044B1868F7
S31508002EB00FF0D1FDEDE700BF1C180020946401084F
S31508002EC03C150020F0B583B005460EF0A9F9044676
S31508002ED0694610F047FC0EF09FF940B1002D41D02D
S31508002EE06946204610F02BFC002835D0FEE71E4E1A
S31508002EF073781E4F002257F8231020460AF0ACFBC1
S31508002F00B3889BB2727857F822209268128A9A423E
S31508002F1000D33DB1144B5978144A52F821209268CF
S31508002F20D2899A80104B5A78104B53F822309B68F6
S31508002F305A680F4B9A4207D89DF800300A2BCDD015
S31508002F400A238DF80030CBE79DF800300E2BC5D04C
S31508002F500E238DF80030C3E7FFF75AFF01462046D7
S31508002F6010F002FC03B0F0BD1C1800200010002071
S31508002F70FFC99A3B70B505460C4616460EF050F941
S31508002F800AF080FB30800EF047F970B9094A51788B
S31508002F90094B53F82110896849682960527853F813
S31508002FA022309B689B68236070BD214628460EF038
S31508002FB01FF9F9E71C1800200010002038B505464F
S31508002FC00C460EF029F970B9094A5178094B53F89D
S31508002FD021108968C9892980527853F822309B685C
S31508002FE01B8A238038BD214628460EF005F9F9E7E5
S31508002FF01C1800200010002008B50A4B00221A7081
S3150800300002E00133074A1370064B1B78FF2B04D0E6
S31508003010054A52F82320002AF3D1044803700EF01B
S31508003020F4F808BD42290020001000204B29002092
S31508003030064B00225A83DA834FF6FF7199831A8367
S315080030401A84034B01221A70704700BFF417002038
S315080030504829002010B50EF0E3F80446FFF7E8FF0C
S315080030600EF0DAF828B1094B1B78DBB2012B06D033
S3150800307010BD064B9979204610F04EFBF3E78023E6
S3150800308000220349204610F0C7FBF1E71C18002070
S315080030907417002010B50EF0C3F80022104B83F801
S315080030A02420104B998889B20AF0D6F838B900233B
S315080030B00D4A13700D4A1370FFF776FC10BD0446CF
S315080030C00120FDF765FF0028F1D00EF041F80EF05B
S315080030D040F822460649074B18680FF0BCFCE6E79D
S315080030E0F41700201C180020462900204529002036
S315080030F0B86401083C150020F0B583B00EF090F8CE
S315080031000446824B1B7803F0FF05C3B17F4B0022B0
S315080031101A707F4B1B8C9BB24FF6FF72934219D0E5
S315080031207B4A138C9BB201339BB21384794B9988E3
S31508003130002289B220460AF08FF8064660B9764B17
S315080031401B78CBB9734B5B7B0BB1744B1D70284650
S3150800315003B0F0BD0025E9E70120FDF719FF0028B7
S31508003160EDD00DF0F5FF0DF0F4FF32466C496D4BCE
S3150800317018680FF070FCE2E70EF05DFC664A1378FB
S31508003180013BDBB213700EF05CFC674A0221204655
S3150800319010F046FB654B1860654A0221204610F080
S315080031A043FB0EF039F8002800F09780614E5E491F
S315080031B030460EF008F80221204610F039FB30465A
S315080031C00EF028F80646534FB988002289B22046E1
S315080031D00AF042F8B278FB7ADBB29A42B7D1F278B3
S315080031E0BB7ADBB29A42B2D1494B9B8B9BB24FF664
S315080031F0FF72934205D03288454B5B8B9BB29A424D
S315080032000CD8434A002494833388013B9BB2D3836A
S31508003210FFF7CAFBFFF7F6FC474B1C603C4B9B8B42
S315080032209BB24FF6FF72934205D0394A938B9BB2F5
S3150800323001339BB293833388354CE28B92B29B1A47
S315080032409BB263833A4B93F90E3084F8223094F894
S31508003250223094F8220040B20DF096FFC0B2FFF774
S31508003260B5FB638B9BB2344A12689B1A012B42D872
S31508003270FFF762FC264C638B9BB22F4A1360FFF75D
S31508003280EFFC07EE100AB8EEC77ADFED2C7A27EEC8
S31508003290277A204B1B7BDBB207EE903AF8EEE77AEB
S315080032A0C7EE276AC4ED016A638B9BB253B3A28B40
S315080032B092B29A1A07EE102AB8EEC77ADFED1F7A8D
S315080032C027EE277A07EE903AF8EEE77AC7EE276AEE
S315080032D00F4BC3ED006A012534E70023019301AAC9
S315080032E011491448FDF79CFE104B1968204610F04A
S315080032F09FFA019E67E7608B80B2801A0138FFF754
S315080033003FFCB5E7DFED0E6AE2E700BF462900207D
S31508003310F41700201C180020452900204429002005
S31508003320DC6401083C1500205C160020701600209D
S3150800333044160020741600203C1600200000C842DF
S315080033400000000008B50D4B1B7853B10B4B00224B
S315080033501A700B4B1B782BB1094B1B78DBB2012B70
S3150800336003D008BDFFF796FCFBE7064B93F824301D
S31508003370002BF6D0FFF7EAFCF3E700BF442900204C
S315080033801C180020F4170020F8B504461D4602F064
S31508003390AA4103F0220C51EA0C0105D012F0807FF5
S315080033A01AD0454B0121197044490A420DD012F032
S315080033B0080F41D112F4807F4BD0414B01221A707D
S315080033C0404A537843F002035370002605F4007709
S315080033D056EA070361D1F8BD12F0806F05D0394966
S315080033E00B7843F001030B70DEE712F0805F05D01F
S315080033F034490B7843F002030B70D5E712F0804F7F
S3150800340005D030490B7843F004030B70CCE713F072
S31508003410020F05D02B490B7843F008030B70C3E75E
S3150800342013F0200FC0D027490B7843F010030B7018
S31508003430254B01211970B7E70EF0FDFA234A1378D8
S315080034400133DBB213700EF0FCFA204610F0EEF9E9
S31508003450BBE712F4803F05D01A4A537843F00103BC
S315080034605370B2E712F4806F05D0164A537843F0CA
S3150800347004035370A9E712F4006F05D0114A537874
S3150800348043F008035370A0E712F4004F9DD00D4A8D
S31508003490537843F01003537097E7002211462046ED
S315080034A00AF006F90A4B18701B78002B93D0094BC3
S315080034B0C3E900678FE700BF48290020088D01008F
S315080034C046290020401600204729002045290020CB
S315080034D043290020F811002070B582B006460D4633
S315080034E0002406E02A46314620460DF08DFE0134BA
S315080034F0E4B20C4B1B78A34212D90B4B1B78002B5A
S31508003500F0D0A342EED9287800942346074AFF2133
S31508003510304405F0FFFC30460DF0A5FE2870E6E7BE
S3150800352002B070BD4B29002042290020F86401082A
S3150800353030B5A3B005460DF073FE0446002102918E
S315080035407C2203A810F03DFC0DF066FE90B10DF04C
S315080035505FFE38B902A928460DF0A8FE0DF0A8FEB0
S3150800356002460EE002A928460DF0A1FE9DF80920A4
S31508003570023206E002A92846FFF7CEFA114B9A79DD
S31508003580D2B202A92046FDF76DFD0E4B998800229E
S3150800359000920D4B89B2204609F052FE044608B93E
S315080035A023B030BD0120FDF7F3FC0028F8D00DF05C
S315080035B0CFFD0DF0CEFD22460449054B18680FF0E5
S315080035C04AFAEDE71C180020581000200865010883
S315080035D03C15002008B5194B1B8B9BB2184A12895B
S315080035E092B29A421ED9174B1B7823B9164B1B78F1
S315080035F003F0FF00DBB1134B00221A70124B1B7845
S3150800360063B90E4A138B9BB201339BB213830B4BE0
S31508003610188B80B2FFF78CFF012008E00A4B0022C6
S315080036201A70F4E7054B002283F824200120044B86
S315080036305B7B0BB1054B187008BD00BFF417002063
S315080036401C1800204829002047290020442900206A
S3150800365008B1024A02600320704700BF24650108CA
S31508003660084A13780133DBB213701378DBB2012BE7
S3150800367004D9044B00221A70012070470028FBD099
S31508003680F7E700BF1C18002048B9094A1378013328
S31508003690DBB21370072B02D9134600221A70044BAB
S315080036A01A78044B33F81220034B1A81012070470D
S315080036B0E9110020C86501081C180020074A937AFA
S315080036C00133DBB29372937ADBB2202B00D810B1A8
S315080036D0024B00229A720120704700BF1C18002076
S315080036E0074AD37A0133DBB2D372D37ADBB2202B03
S315080036F000D810B1024B0022DA720120704700BFD1
S315080037001C180020084B1B7BDBB2802B00D020B195
S31508003710054B20221A7301207047034A137B5B006E
S31508003720DBB21373F7E700BF1C180020054A537B6A
S3150800373083F00103537310B1134600225A73012014
S31508003740704700BF1C18002008B1024A0260042016
S31508003750704700BF3865010810B504460DF060FDD6
S31508003760FCB109F08FFF194B58805B881BB21849CA
S3150800377081FB0321DA17C2EB610202EB82029B1A74
S315080037801BB2D3B111494B881BB20233104A82FBD4
S315080037900302DB17C3EB620303EB83031BB24B8005
S315080037A00BE00A4A53889BB205331BB253805488F0
S315080037B024B2FFF72DFB844203DCFFF761FB0120EF
S315080037C010BDFFF7EBFA014B5880F6E71C180020EE
S315080037D06766666610B504460C4A93790133DBB210
S315080037E093710DF019FD30B114B10DF078FD0BE0B1
S315080037F00DF076FD08E0054B9B79DBB2402B00D82F
S3150800380014B1024B07229A71012010BD1C18002022
S3150800381010B504460DF000FDC8B9124A93889BB24C
S3150800382001339BB2938093889BB251780E4A52F823
S3150800383021209268128A9A4200D38CB1094B597892
S31508003840094A52F821209268D2899A8008E02CB950
S31508003850044A93889BB201339BB293800DF041FDD5
S31508003860012010BD1C1800200010002038B50025C6
S3150800387001E00135EDB2054C04EB0514636801203F
S315080038809847237B002BF4D038BD00BFD8650108C4
S315080038900D4B1B7843B900010C4B1B5C012B01D067
S315080038A00020704701207047074B1B78DBB2012BBD
S315080038B008D10001054B1B5C022B01D00020704784
S315080038C001207047002070471C180020D8650108A1
S315080038D008B5044B1A78044B03EB02135B68002007
S315080038E0984708BD4A290020D865010870B50D46D5
S315080038F01646002404E0104A135501300134E4B298
S315080039000378002BF7D104E00B4B20221A5501341B
S31508003910E4B228460DF0A7FC301A8442F4DB04E032
S31508003920054A135501350134E4B22B78002BF7D13B
S315080039300148035570BD00BF2C18002068B110B5AA
S315080039400446074B5B7B33B1064907480DF0CAFCB2
S315080039502060012010BD0549F7E70120704700BF28
S315080039601C180020285C01084C6501082C5C01081D
S3150800397090B110B582B00446084B1B7B084A042157
S315080039800DEB010005F0C6FA01A906480DF0AAFCE0
S315080039902060012002B010BD012070471C180020CD
S315080039A0845D01086065010890B110B582B00446CF
S315080039B0084BDB7A084A04210DEB010005F0AAFA48
S315080039C001A906480DF08EFC2060012002B010BD4A
S315080039D0012070471C180020845D010870650108E5
S315080039E090B110B582B00446084B9B7A084A042168
S315080039F00DEB010005F08EFA01A906480DF072FCE0
S31508003A002060012002B010BD012070471C1800205C
S31508003A10845D0108BC5D010818B310B582B0044680
S31508003A20114B1B899BB24FF6FF7293420ED10E4B78
S31508003A301B899BB24FF6FF72934210D069460B481A
S31508003A400DF050FC2060012002B010BD064B1B890A
S31508003A509BB2074A0621684605F05CFAE7E705497E
S31508003A60EDE70120704700BF1C1800208465010897
S31508003A70845D01087C65010890B110B582B00446E2
S31508003A80084B9B79084A04210DEB010005F042FA20
S31508003A9001A906480DF026FC2060012002B010BDE1
S31508003AA0012070471C180020845D010894650108F0
S31508003AB090B110B584B00446084B9B889BB2084A5F
S31508003AC00A2101A805F026FA01A906480DF00AFC04
S31508003AD02060012004B010BD012070471C1800208A
S31508003AE0845D0108A465010800283CD010B588B09B
S31508003AF00446002303930493ADF80A300DF10A0235
S31508003B0004A903A8FFF736FA039B184AA2FB031277
S31508003B10920C174901FB1232DAB101F1864101F51F
S31508003B20492101F64341A1FB03131249A1FB0212E5
S31508003B30C2F34F3200929B0C0F4A0B2105A805F0E1
S31508003B40E9F905A90D480DF0CDFB2060072008B05E
S31508003B5010BD064AA2FB03239B0C094A0B2105A8A4
S31508003B6005F0D8F9EDE70720704700BF83DE1B4351
S31508003B7040420F005917B7D1F0590108605D010896
S31508003B80FC59010830B58FB004460DF049FB002CEE
S31508003B9039D009F077FD01461C4B588800B280EAF7
S31508003BA0E07CACEBE07C1FFA8CFC81EAE17EAEEBB4
S31508003BB0E17E1FFA8EFE164A82FB0053C017C0EB41
S31508003BC0A30382FB0E50801000EB8000AEEB400092
S31508003BD0029082FB01E0C917C1EBA00109B201916D
S31508003BE082FB0C12921002EB8202ACEB42020092AC
S31508003BF01BB2084A232105A805F08CF905A9064831
S31508003C000DF070FB206001200FB030BD1C1800209D
S31508003C1067666666945D0108A85D0108C0B110B5BF
S31508003C2084B004460DF0F8FA70B90A4B5B780A4A74
S31508003C300F21684605F06EF9694608480DF052FBF3
S31508003C402060012004B010BD68460DF047FBF3E77D
S31508003C50012070471C180020BC580108B4650108EB
S31508003C60A0B110B504460A4B1B78DBB2012B04D071
S31508003C70074B1B7843B9074900E0074907480DF089
S31508003C8031FB2060012010BD0549F7E70120704788
S31508003C901C180020585801085C580108C06501081E
S31508003CA0BC650108014B1878704700BF4A290020F7
S31508003CB070B506460024254600E00134A64207DD15
S31508003CC0E0B2FFF7E5FD0028F7D00135EDB2F4E7DD
S31508003CD0024B1878401BC0B270BD00BF4A290020AD
S31508003CE0014B1878704700BF49290020024B03EBA7
S31508003CF00013187B704700BFD8650108174B1A7860
S31508003D00174B03EB02131B7BB3B10023134A137043
S31508003D10144A137070470DF0EAFA04460F4B1878E8
S31508003D20FFF7C6FF0444C4F10D04062C14D90D4A46
S31508003D301378013313700FE010B5084B187801306B
S31508003D40C0B21870FFF7A4FD0028F6D1034B187807
S31508003D50FFF7AEFF0528DED810BD00BF4A290020B0
S31508003D60D86501084929002000B583B0044B03EB48
S31508003D7000139B6801A89847019803B05DF804FBF7
S31508003D80D865010808B5034B03EB00139B680020B0
S31508003D90984708BDD865010808B5094A537801331C
S31508003DA0DBB253705378DBB2064A1278934200D2DC
S31508003DB010B1034B00225A700DF0ADFA012008BD70
S31508003DC01C1800204B290020014B1870704700BFB3
S31508003DD04D290020014B01221A7070474C290020FA
S31508003DE008B5574B1B78042B17D8DFE803F0031FD9
S31508003DF041607600534B1B7893B90020FDF700FF0E
S31508003E0018B90120FDF7FCFE38B1FEF745FE012082
S31508003E10FFF7DAFF4B4B01221A70FFF793FA08BD3A
S31508003E20FEF7BEFC474B00221A70E6E70120FDF7B5
S31508003E30E7FE90B1FFF762FF424B01221A70414B31
S31508003E401B78002BE9D03E4B1B78012BE5D1FEF7FA
S31508003E506BFC3C4B00221A70DFE70020FDF7D0FE12
S31508003E600028ECD0FFF734FD364B01221A70E6E73E
S31508003E70FFF7F0F8334B00221A700DF00FFA324BA9
S31508003E801B7853B1304B1B78DBB2012BC5D104200C
S31508003E90FFF79AFFFEF740FDBFE70320FFF794FF01
S31508003EA0FFF7F8F8FFF7C4F8FEF7E8FCB5E7FFF701
S31508003EB023F9244B187068B90120FDF7A1FE0028E4
S31508003EC0ABD00DF0C8F90120FFF77EFF1D4B01228C
S31508003ED01A70A2E7FEF7D2FCEEE71C4B93F82430E3
S31508003EE09BB9184B1B78ABB90120FDF789FEA0B129
S31508003EF00120FFF769FF134B01221A70134B0022AA
S31508003F0083F824200DF0CAF987E7FFF763FB0D4B0A
S31508003F101870E6E7FEF700FDE6E70020FDF770FEFD
S31508003F2000283FF47AAF094A92F8243083F0010357
S31508003F3082F82430FFF77CF8024B01221A706CE7EE
S31508003F404D2900204C2900201C180020F4170020B9
S31508003F502DE9F04180460F4601F109050026344651
S31508003F6004E05B21082000F08DFC0134AC4233D21A
S31508003F70052C1BD801A353F824F000BF633F0008A3
S31508003F80953F0008C93F00089D3F0008A13F00086B
S31508003F90A53F0008FBB20433D9B2E3E78021E1E785
S31508003FA00021DFE7731C3146DEB2DBE7BB1DA34207
S31508003FB00CD0FB1DA3420BD007F10803A34209D07E
S31508003FC0A31F18F80310CDE7D121CBE75A21C9E77B
S31508003FD05A21C7E75D21C5E70020BDE8F08100BF8B
S31508003FE000B583B000220092019202218DF80010DC
S31508003FF005480DF0D6F9019008216846FFF7A8FF95
S3150800400003B05DF804FB00BF006A18002DE9F04311
S3150800401089B00446884617460DF1040C204D0FCD8D
S31508004020ACE80F0095E807008CE80700D4F8009084
S315080040301C4ED6F8985705F0040501213A2001F0E0
S3150800404067FA0121606801F063FA00230422617BA4
S31508004050207B02F0D9F800230422617A207A02F044
S31508004060D3F8CDF80C80ADF8147001238DF8123012
S3150800407001A948460DF060FD237A627A43EA0243B5
S31508004080C6F8B037237B627B43EA0243C6F8AC37EF
S3150800409045F01805C6F89857002009B0BDE8F08322
S315080040A0A866010800C00350024B4022C3F8A020AE
S315080040B0704700BF00F0035010B582B081B10446C6
S315080040C004F03EFA217B4900012301930023009363
S315080040D0054AB0FBF1F105480EF0B1FE02B010BD7D
S315080040E0024804F0DDF9F9E7A9400008581800204D
S315080040F0F0B583B00546104C04F580534FF480762E
S31508004100C3F8A060407B04F07FFB0423ADF80630BB
S315080041100A4F02220DF1060138460DF06AF93846B3
S315080041200DF079F9A87B04F06FFB04F50054C4F888
S31508004130A060002003B0F0BD00C00350601000204E
S3150800414038B5054601213A2001F0E2F90022A968AE
S315080041501048FFF75BFF002304220821022002F023
S3150800416053F8002304220621022002F04DF80A4CD7
S31508004170AC46BCE80F000FC4DCF800302360012110
S31508004180064B19702846FFF797FF2846FFF7B0FF3A
S31508004190002038BD60100020441800204E29002059
S315080041A02DE9F04383B081460D461F4606880379FC
S315080041B003FB06F6F61002F10108274B4FF480724E
S315080041C0C3F8A020407B04F01FFB1FFA88F84FEACB
S315080041D008239BB243F00103ADF8063002220DF125
S315080041E006011E480DF005F900240AE04FF6FF7394
S315080041F0ADF8063002220DF1060118480DF0F9F85F
S315080042000134BC4214D23246294614480DF0F1F85E
S3150800421035447B1EA342E9D008EB040292B2013270
S3150800422092B2120292B242F0FF02ADF80620E1E71E
S315080042300A4C20460DF0EFF899F80E0004F0E4FA5F
S31508004240074B4FF48072C3F8A02020460DF0E9F81A
S31508004250002003B0BDE8F08300D0035060100020B2
S3150800426000E00350034B1B780BB10348704700204E
S31508004270704700BF4E2900204418002010B586B0AC
S315080042800DF1040C054C0FCCACE80F002368CCF8F4
S31508004290003001A8FFF754FF06B010BDC466010838
S315080042A0024B1022C3F8A020704700BF00E003505D
S315080042B0024B1022C3F8A020704700BF00D003505D
S315080042C070B588B001AC3F4D0FCD0FC495E8070017
S315080042D084E8070001213A2001F01AF90121292072
S315080042E001F016F901248DF81240374B0393374E27
S315080042F001A930460DF020FC23460422214602205F
S3150800430001F082FF002322460221084601F07CFFC5
S31508004310234604220321022001F076FF23460422C5
S315080043201146022001F070FF294D2A4BC5F8AC371B
S315080043304FF00213C5F8A837A3F58033C5F8B03790
S315080043401C23C5F898374FF4487004F05DFAFFF758
S31508004350A7FF142004F058FAFFF7AAFF232004F059
S3150800436053FAFFF79DFFB92130460DF03AFCFFF7E7
S315080043709FFF00231A462146022001F045FF00232D
S315080043801A460221084601F03FFF23460022032170
S31508004390022001F039FF234600220421022001F001
S315080043A033FF304602F0B8F80021C5F8AC17C5F857
S315080043B0A817C5F8B017C5F89817292001F0A8F866
S315080043C008B070BDD866010800127A0000C0055012
S315080043D000C003500200030008B50448044A121A34
S315080043E0921004490DF029F808BD00BFE4CD010874
S315080043F0E4CD01087829002008B500F02FF8FFF76A
S31508004400EBFF124A0AE01068516850F8230041F899
S315080044102300013391688B42F5D30C320C4B9A4238
S3150800442001D20023F6E70B4A08E01168002041F89C
S315080044302300013351688B42F7D30832064B9A4260
S3150800444001D20023F6E7FCF7EBFB00BFE0CB01083F
S31508004450ECCB0108ECCB0108ECCB010810B4144BEB
S31508004460144A9A60D3F8882042F47002C3F8882068
S31508004470114A4FF480419166104901F500524FF0F8
S31508004480FF3010660E4850660220C3F8D000BFF30E
S315080044904F8FBFF36F8F0B480124C0F880414FF44C
S315080044A04033D36004600B615DF8044B704700BF6E
S315080044B000ED00E000000008009000500080004475
S315080044C07FFF7F0100E100E0014B1868704700BFDD
S315080044D07410002008B5094B1B6F03F00703022B65
S315080044E004D0032B05D0012B06D0FEE7FFF7ECFF1F
S315080044F003E0034B186800E0024808BD008000503E
S315080045007C100020002D310108B5FFF7E3FF054BAD
S315080045101B6FC3F303330133B0FBF3F0024B186090
S3150800452008BD00BF0080005070100020004870478A
S3150800453000B4C404014B1868704700BF7C10002003
S3150800454008B5064B1860064B1B6F03F00703032BD1
S3150800455000D008BDFFF7D8FFFBE700BF7C1000209E
S315080045600080005000487047002D31014FF0B443D9
S315080045709868C0F304400C2808D8DFE800F009075B
S315080045800707070722181A071C1E20000020704775
S315080045904FF0B4439B6803F04073B3F1807F12D0A9
S315080045A0B3F1007F11D003B1704709487047094835
S315080045B070470948704709487047094870470948CD
S315080045C0704709487047094870470948ECE700BF33
S315080045D000093D000024F400C0EA210180BA8C01DC
S315080045E00048E801005A6202405DC60080841E0049
S315080045F040420F00014B1868704700BF7810002032
S31508004600F0B18446F1B110B409E004F120000FE0DE
S315080046102033C01A18D1BCB10CF1010C01319CF839
S3150800462000400B4B1B5D03F00303012BEDD0204626
S315080046300B78074AD25C02F00302012AE9D1E7E7C0
S3150800464001207047012070475DF8044B704700BF92
S31508004650D5CA01080346064A10680344054A934228
S3150800466002D8034A136070474FF0FF30704700BF07
S3150800467080100020000001200A681378022B00D160
S31508004680704710B508461379517903EB43031B01AC
S315080046901433064C1B59CB4013F0010F0CBF0123F2
S315080046A000231370FDF7C0FA10BD00BF30C00350D9
S315080046B070B582B00546046801213A2000F028FF4B
S315080046C0002301226179207901F09EFD2179627922
S315080046D001EB4101090114311E4BCB58D34013F0AD
S315080046E0010F0CBF012300232370A379022B02D0EC
S315080046F0002002B070BD00F095FB2B46164A617982
S31508004700207900F0B7FB0246FF2815D06179207999
S3150800471001260096002301F0EBFD2A460E49607932
S3150800472000F0E8FB024661792079019600230093A0
S31508004730334601F0FFFCDBE72A460749607900F0BB
S31508004740D9FB02466179207901230193009301F090
S31508004750F1FCCDE730C003507946000802681378AB
S31508004760022B12D01379517903EB43031B0114333F
S3150800477012481B58CB4003F00100034691790129E2
S3150800478004D011B980F001001070704751884900B3
S3150800479089B20B4343F47F4343F0C0034FF6E071FD
S315080047A08B4205D04FF6DF718B4204D05380704799
S315080047B001211170FAE700211170F7E730C00350A4
S315080047C008B501213A2000F0A3FE012304220321A3
S315080047D0002001F019FD00200DF09BF9224B012263
S315080047E0C3F844244FF460700CF02CFF1F4BD3F829
S315080047F0F02042F00102C3F8F020D3F8FC2042F082
S315080048008072C3F8FC20A3F55D43194A1A6000F5C7
S31508004810D52000F2FC40C008164BA3FB0030800AE6
S315080048200138154B18610222C3F8F0204FF4807244
S31508004830C3F804234FF06043104AC3F8B02F104A58
S31508004840C3F8802ED3F8002E42F48072C3F8002EE7
S31508004850FF2283F82020D3F8002E22F48072C3F8B2
S31508004860002E002008BD00BF00D0035000ED00E078
S31508004870FF03004017916502000004E055CEACC561
S31508004880090001004FF06043D3F8803E13F0010F92
S3150800489001D1112070470E4AD2F8FC3043F08073DC
S315080048A0C2F8FC304FF06043D3F8002E4FF0010CED
S315080048B00CFA00FC42EA0C02C3F8002E53F820302A
S315080048C0002BE8D04FF0604303F820100020704713
S315080048D000ED00E0F0B585B00C4694469DF834101E
S315080048E0664A1278002A00F0BD800546BCF1070F1B
S315080048F000F2BA800A9A002A00F0B8800B9A002AB9
S3150800490000F0B6800E9AB2F5006F00F3B380012866
S315080049105BD05B4A02EB0C12127B002A00F0AC80DB
S3150800492000220092019202920392564A02EB4C1E12
S31508004930002C4FD14FEA4C1600209051CEF80400B7
S31508004940CEF80800CEF80C009EF8020040F01000E1
S315080049508EF802009EF8030040F030008EF803003F
S3150800496021B9C1B241F003018EF8031000930E9BE2
S31508004970013B444A4FEA4C1002EB4C11165A63F3BA
S315080049800E1616520A9B8B600B9B4B60CB789DF8D4
S315080049903C2062F38303CB70012D36D0109B002B8D
S315080049A056D0374A4FEA0C1102EB0C1310985050A8
S315080049B0119A5A6000249C605D7372466946604687
S315080049C001F012FD204605B0F0BD0C9A002AA0D1D0
S315080049D02D48F8E72B4F4FEA4C1607EB4C120020F0
S315080049E0B85150609060D060907840F01000907098
S315080049F0D07840F00300D0700029B7D107EB4C12ED
S31508004A00C1B241F03001D170B0E70E460A7B42F0E0
S31508004A1001020A73D2B242F002020A73CA6804217A
S31508004A2061F39F02F26006F1100796E80F0087E827
S31508004A300F00F2696FF0030161F39F02F2610C9BAC
S31508004A407361012CAAD10B9AB2610C9A7260A5E720
S31508004A50002DA6D10B4B03EB4C139A786FF3041277
S31508004A609A709EE70948AEE70748ACE70648AAE702
S31508004A700548A8E70448A6E70548A4E74F29002003
S31508004A807819002078180020018000F0028000F0D4
S31508004A90078000F0134B1B78FBB110B50446F0B144
S31508004AA00CF0C9FF0023072B13D80F4A02EB031299
S31508004AB0127B0AB10133F6E723600B4A190102EBB0
S31508004AC0031301241C73002454500CF0BAFF20462B
S31508004AD002E00CF0B6FF054810BD054870470548CA
S31508004AE0FAE700BF4F29002078190020048000F05B
S31508004AF0028000F0018000F038B50CF09CFF0446F7
S31508004B000023072B06DC0C4A02EB0312127B12B9B0
S31508004B100133F6E7002222B120460CF092FF07483F
S31508004B2038BD01F003FC0025054B1D7020460CF02E
S31508004B3088FF2846F4E700BF78190020058000F0B2
S31508004B404F2900200F4B1B78BBB110B50446072828
S31508004B5015D80CF070FF0C4B03EB04131B7B1BB929
S31508004B600CF06FFF09480BE0074B03EB0413002416
S31508004B701C730CF066FF204602E00548704705489E
S31508004B8010BD00BF4F29002078190020068000F0CC
S31508004B90028000F0018000F000B583B0134B1B685B
S31508004BA0019300238DF804300CF045FF104B1B7859
S31508004BB033B90F4B01221A700CF043FF002309E0AA
S31508004BC00CF03FFF0B480EE00B4A02EB03120021E4
S31508004BD011730133072BF7DD08238DF8073001A879
S31508004BE001F0D0FB002003B05DF804FBF466010871
S31508004BF04F290020038000F07819002008B50A4BD9
S31508004C001B785BB107280BD8084B03EB00131B7BFB
S31508004C1043B1002101F0A8FB002008BD0448FCE7C9
S31508004C200448FAE70448F8E74F29002078190020D5
S31508004C30028000F0018000F0078000F008B50A4BFA
S31508004C401B785BB107280BD8084B03EB00131B7BBB
S31508004C5043B1012101F088FB002008BD0448FCE7A8
S31508004C600448FAE70448F8E74F2900207819002095
S31508004C70028000F0018000F0078000F008B50A4BBA
S31508004C801B7853B107280AD8084B03EB00131B7B84
S31508004C903BB101F0F3FB002008BD0548FCE70548D9
S31508004CA0FAE70548F8E700BF4F29002078190020E1
S31508004CB0028000F0018000F0078000F0104B1B789E
S31508004CC0ABB1072815D8B1B10E4B03EB00131B7B0C
S31508004CD09BB10D4B1B6D0122824013EA020003D0E3
S31508004CE001230B700020704700230B70704707489C
S31508004CF0704707487047064870470648704700BF20
S31508004D004F2900207819002000000450028000F086
S31508004D10018000F0078000F00C4B1B7873B110B5CA
S31508004D200C4607280CD869B1094B03EB00131B7B0B
S31508004D3053B101F0B5FB2070002010BD054870473F
S31508004D400548FAE70448F8E70448F6E74F2900203B
S31508004D5078190020028000F0018000F0078000F03A
S31508004D60F8B5194B1F6D5B6D1F4002D40125002451
S31508004D7002E0FEE701346D00072C24D83D42F9D045
S31508004D80124B1D652301124AD358002BF2D002EBB1
S31508004D900416B1680131B16072682046984780F000
S31508004DA00100C0B2737B012BE4D10028E2D0094B85
S31508004DB003EB44131A7B6FF341021A731A7F6FF3DE
S31508004DC041021A77D6E7F8BD0000045000200450C7
S31508004DD0781900207818002010B5044602E0202033
S31508004DE007E09047DCB194FAA4F00028F7D0B0FAAF
S31508004DF080F00123834024EA0304094B03EB0013E4
S31508004E005A68002AEED0064B03EB00131B7B002BD7
S31508004E10E7D0034B03EB001399689047E2E710BD10
S31508004E20F819002008B51A2000F044FE28B1084BEE
S31508004E304FF08062C3F880211A601B2000F03AFE0A
S31508004E4028B1034B4FF00062C3F880211A6008BDF1
S31508004E5000E100E038B505460C460CF0ECFD044BC5
S31508004E6003EB05135C6000221A730CF0EAFD38BDEB
S31508004E70F8190020F8B504460D4617461E460CF0EC
S31508004E80DAFD0CB9052D1DD0012C05D0022C09D050
S31508004E90032C0FD0FF241FE0012D21D0032DF5D1BF
S31508004EA0042410E0052D1DD0072D1DD0002DEFD1AF
S31508004EB0062408E0022D19D0052D01D0FF240BE0A9
S31508004EC00A2400E0002404F11003094901EB031148
S31508004ED04F608E6001230B730CF0B3FD2046F8BDBE
S31508004EE00324F0E70724EEE70824ECE70924EAE7B9
S31508004EF0F8190020F8B505460F4616460CF09BFD36
S31508004F0005F0FC0C0F4BD3F824140023032B0BD805
S31508004F105C1904F00304644421FA04F212F0010F48
S31508004F2003D00133DBB2F1E7FF24FF2C06D0064B92
S31508004F3003EB04135F609E6001221A730CF081FD77
S31508004F402046F8BD00C00350F819002008B5084BE4
S31508004F50D3F82404D3F82024104000F0553020F06C
S31508004F60502003F50053C3F82004FFF735FF08BDAA
S31508004F7000C0035008B5084BD3F82404D3F82024FE
S31508004F80104000F0AA3020F0A02003F50053C3F823
S31508004F902004FFF721FF08BD00C00350024B4FF461
S31508004FA080321A67704700BF0090005038B5054632
S31508004FB00C46174BD3F8200100F00700062823D823
S31508004FC0DFE800F0040A0E16121A1E00012305B1C6
S31508004FD0286004B1236038BDFFF776FA0523F6E7A3
S31508004FE0FFF7A8FA0323F2E7FFF7C0FA0723EEE76D
S31508004FF0FFF7B8FA0223EAE7FFF766FA0623E6E7B9
S31508005000FFF798FA0423E2E700231846DFE700BF14
S315080050100080005038B505460C46164BD3F82831A3
S3150800502003F00703013B052B20D8DFE803F0031341
S315080050301B0F0B17FFF748FA052305B1286004B1C3
S31508005040236038BDFFF740FA0623F6E7FFF78EFA26
S315080050500723F2E7FFF76EFA0323EEE7FFF76AFA8C
S315080050600423EAE7FFF77EFA0223E6E70023184659
S31508005070E3E700BF0080005070B582B006460D46D3
S3150800508000230193104BD3F8804104F00304022C4B
S3150800509016D0032C0FD0012C07D000240EB1019B8B
S315080050A0336005B12C6002B070BD002101A8FFF77E
S315080050B07DFF0F24F2E7FFF759FA01900724EDE781
S315080050C0FFF750FA0190E9E70080005038B5054629
S315080050D00C460C4BD3F8903203F00303012B05D092
S315080050E0022B07D1FFF742FA072305E0FFF73AFA42
S315080050F0022301E00023184605B1286004B12360A5
S3150800510038BD00BF0080005030B583B005460C4658
S3150800511000230193154BD3F8203203F00703042B21
S3150800512021D8DFE803F0030B11161B0001230DB18C
S31508005130019A2A6004B1236003B030BD002101A89A
S31508005140FFF768FF1123F2E7FFF710FA019007232C
S31508005150EDE70CF080F901900A23E8E7FFF74AFA31
S3150800516001900923E3E70023E1E700BF0080005030
S3150800517038B505460C46104BD3F8400100F003003D
S31508005180032815D8DFE800F002080C10012305B142
S31508005190286004B1236038BD0CF05DF90A23F6E7F0
S315080051A0FFF728FA0923F2E70CF058F90B23EEE784
S315080051B000231846EBE700BF0080005030B583B0E7
S315080051C005460C4600230193144BD3F8603203F0CE
S315080051D00703013B032B1FD8DFE803F0020E19145F
S315080051E0002101A8FFF7E2FE0F230DB1019A2A60FC
S315080051F004B1236003B030BD002101A8FFF7B8FF52
S315080052001023F2E7FFF7B2F901900723EDE7FFF75E
S31508005210A9F901900223E8E70023E6E70080005099
S3150800522030B583B005460C46002301930C4BD3F8E2
S31508005230703203F00303012B09D0022B0DD114237E
S315080052400DB1019A2A6004B1236003B030BD002174
S3150800525001A8FFF78DFF1023F2E70023F0E700BF50
S315080052600080005038B505460C46134BD3F80002AB
S3150800527000F0070004281BD8DFE800F003090D1129
S315080052801500012305B1286004B1236038BD0CF070
S31508005290E2F80A23F6E7FFF7ADF90923F2E70CF07F
S315080052A0DDF80B23EEE7FFF72FF9800A0E23E9E76F
S315080052B000231846E6E700BF0080005038B50546CB
S315080052C00C46134BD3F8080200F0070004281BD835
S315080052D0DFE800F003090D111500012305B1286068
S315080052E004B1236038BD0CF0B6F80A23F6E7FFF7D9
S315080052F081F90923F2E70CF0B1F80B23EEE7FFF783
S3150800530003F9800A0E23E9E700231846E6E700BFFB
S315080053100080005038B505460C46104BD3F84002BD
S3150800532000F00300032815D8DFE800F002080C1087
S31508005330012305B1286004B1236038BD0CF08BF851
S315080053400A23F6E7FFF756F90923F2E70CF086F881
S315080053500B23EEE700231846EBE700BF008000505A
S3150800536038B505460C460F4BD3F8503203F0030305
S31508005370022B12D0032B08D0012B0AD00023184683
S3150800538005B1286004B1236038BD0CF067F80B231B
S31508005390F6E70CF060F80A23F2E7FFF72BF9092382
S315080053A0EEE700BF0080005038B505460C46104BA6
S315080053B0D3F8600100F00300032815D8DFE800F0F1
S315080053C002080C10012305B1286004B1236038BD1A
S315080053D00CF041F80A23F6E7FFF70CF90923F2E780
S315080053E00CF03CF80B23EEE700231846EBE700BF6A
S315080053F00080005038B505460C46104BD3F800011E
S3150800540000F00300032815D8DFE800F002080C10A6
S31508005410012305B1286004B1236038BDFFF78AF877
S315080054200323F6E7FFF7E6F80923F2E70CF011F88D
S315080054300823EEE700231846EBE700BF008000507C
S31508005440B0F5207F20D00ED8B0F5007F16D020D832
S3150800545010B1B0F5C07F04D10F4B186FC0F30330FD
S3150800546018E0002016E0B0F5607F05D10A4BD3F8A6
S315080054708000C0F301100DE000200BE0064BD3F8C6
S315080054809000C0F3046005E0034B186FC0F380205A
S3150800549000E00020013070470080005038B505460E
S315080054A00C46174B4FF480329A660020FFF7C8FF68
S315080054B005FB00F0134BDA6902F4803241F67131CC
S315080054C0D9635B6823F440136CB90F49884207D83F
S315080054D000210B430B494B600AB10022CA6338BD51
S315080054E04FF48011F5E7002C07DD0849884201D8FA
S315080054F00021EEE74FF48011EBE74FF44011E8E79F
